:020000040800F2
:100000000004002005030008070300080703000898
:100010000703000807030008070300080703000898
:1000200007030008070300080703000881590008B8
:100030000703000807030008070300080703000878
:100040000703000807030008070300080703000868
:100050000703000807030008F11800083119000819
:1000600075190008B9190008FD190008ED230008EA
:1000700015240008412400086D2400089924000874
:10008000C1240008ED2400080D1E00081D1F0008F3
:100090001520000869200008BD200008411A00084A
:1000A000070300088943000807030008ED43000820
:1000B0009D410008514400081D4200080703000844
:1000C00007030008070300080703000807030008E8
:1000D0000703000815480008070300080703000885
:1000E000291B00080703000807030008B54400089F
:1000F0000703000807030008070300081925000884
:100100000703000807030008BD42000807030008B2
:100110000703000807030008070300080703000897
:10012000452500086D25000899250008C52500080B
:10013000F125000807030008070300080121000853
:10014000F92100084D220008A1220008152A000804
:100150001926000845260008712600087149000884
:100160000703000807030008070300080703000847
:100170000703000807030008070300080703000837
:10018000070300080703000875450008CD4A00086A
:100190000703000807030008070300080703000817
:1001A0000703000807030008070300080703000807
:1001B00007030008070300080703000807030008F7
:1001C00007030008070300080703000807030008E7
:1001D00007030008070300080703000807030008D7
:0401E000CD660008E0
:1001E40072B6394880F30888384880F3098838485B
:1001F4004EF60851CEF20001086040F20000CCF245
:1002040000004EF63471CEF200010860BFF34F8F48
:10021400BFF36F8F40F20000C0F2F0004EF6885139
:10022400CEF200010860BFF34F8FBFF36F8F4FF022
:100234000000E1EE100A4EF63C71CEF200010860B7
:10024400062080F31488BFF36F8F00F075F900F077
:1002540073F84FF055301F491B4A91423CBF41F897
:10026400040BFAE71C49194A91423CBF41F8040BBC
:10027400FAE71A491A4A1B4B9A423EBF51F8040B3B
:1002840042F8040BF8E700201749184A91423CBF92
:1002940041F8040BFAE700F055F900F04FF9144C5B
:1002A400144DAC4203DA54F8041B8847F9E706F00E
:1002B400E7F9114C114DAC4203DA54F8041B88479A
:1002C400F9E700F03DB90000000400200008002018
:1002D400000000080000002000040020EC6A000870
:1002E400000800204C080020500800204C19002071
:1002F400E0010008E4010008E4010008E40100084A
:100304006EE700F000F8FEE72DE9F04F2DED108ABE
:10031400C1F80CD0C3689D46BDEC108ABDE8F08FCF
:10032400002383F311882846A047002005F0A2F893
:1003340004F0E6FF00DFFEE74D4A4E48136940F241
:10034400FF110B4370B4136113694B4D4B4E4C4C6E
:1003540023F4FF7323F0010313611369136B0B433D
:100364001363136D0B4313650023126D6B60AE6052
:100374004FF01056EE60434A43494FF6FF766E61E4
:100384002B626A62414A2A60414D6360A56044F26F
:100394002005E5604FF6DF7565614FF0E0452562A5
:1003A4004FF4190565623B4D25603B4D4360836006
:1003B400C360466103624562384D05603F254B606A
:1003C4008D60374DCD60374D4E6102F1AB520D62F9
:1003D40077254D6202F5E832334D0D604FF400612C
:1003E400324D51609360D5604FF2FF755561304DC9
:1003F40015620825556204F580542E4D156044F2AB
:1004040003024BF6FF756260A360E36065614FF021
:10041400AA4525625525656200F58050264D256064
:100424004FF4FF7444604FF040648460234CC46014
:100434004FF601644461224C036222494462224C17
:100444000460224A4B600F2088604FF0106442F22F
:100454005050CB604E610C624B62086053609360F5
:10046400D3605661136270BC5362136001F052BCD6
:10047400003802400008024000000240C0C0FC3FB7
:100484000004024000AA0A00000C02400040A02A16
:10049400C0C03F0F4084140ACCCC0C000000AA0258
:1004A40000140500990C70072A280A000540010071
:1004B400880000800A80420000A00A100000041096
:1004C40080000008001C024054550924002002400A
:1004D400704700BF08B5114B11491A6B114842F41B
:1004E40080521A631B6C0B6843F001030B6005F028
:1004F40087FA40F2822208210B4802F017FA40F2F0
:1005040082228021094802F011FA0949094800F0C1
:1005140097FEBDE8084005F0DFBA00BF003802408E
:10052400083002405C0C002000040240000002403D
:1005340050670008FC0A0020704700BF704700BFE6
:10054400FEE700BF70B5134D05F1800655E90304BD
:10055400A04255F8102C0DD2043A034652F8041F59
:1005640043F8041BA342F9D3C3431C4424F00304FB
:100574000434204455F8043C834207D9C2431A4446
:1005840022F003020432002106F0D7F81035B542F8
:10059400DCD170BD7067000808B501F071FB02F092
:1005A4005FF900F0B7FB00F0C3FB00F0D7FB00F0ED
:1005B400DFFB00F0E5FB00F017FC00F039FE00F073
:1005C4004DFE00F065FE00F0C1FCFFF781FFBDE8C1
:1005D400084000F001B800BF03F0F4BD4FF08043C1
:1005E4000021022258631961DA6070474FF080439A
:1005F4000022DA60704700BF4FF0804358637047B1
:1006040070B4DDE90354043301720599C36105FB39
:100614000326002386610562C0E90C41C0E900009D
:10062400C0E904224262C360C0E90A3370BC704767
:10063400416A0022C0E90411C260C0E90A226FF0D5
:10064400010104F079BF00BFD0E90432934201D024
:10065400181D7047C268002AFAD00020704700BFF6
:10066400036910B484691960C169C2680B44A34268
:10067400036102F1010228BF436AC26028BF03611B
:1006840000215DF8044B04F047BF00BF70B5202380
:10069400044683F31188836AE3B1C26A13F8015BE9
:1006A400A362934211D3D4E906106369E268034458
:1006B4008B42636124BF636A6361013A236BE26026
:1006C4000022A2620BB120469847002383F31188CD
:1006D400284670BD0E4605E0237A7BB904F008FF76
:1006E400051EF2DBE36831462046002BF4D0636933
:1006F4001A6804331A44C4E90A32CFE76FF00105DB
:10070400E3E700BF2DE9F84F04460E461746994625
:100714004FF0200A8AF311880025A846A16A00290F
:1007240046D0E36AA7EB050B5B1A9B4528BF9B46A3
:10073400BBF1400F48D901F140023346D1F800E043
:10074400D1F804C08868D1F80CB0C3F80CB01031EB
:100754009142C3F800E0C3F804C0986003F11003A9
:10076400ECD1A36A403340364035A362E26A9A4230
:1007740011D8D4E906106369E268C4F828800344F8
:100784008B42636124BF636A6361236B013AE26055
:100794000BB12046984788F31188BD4221D28AF3D1
:1007A4001188BBE7237ACBB904F0A2FE002815DB3D
:1007B400E36849462046002BF4D061690B68043194
:1007C4000B44C4E90A13ADE730465A4605F0AAFFC4
:1007D400A36A5B445D445E44A362C7E7002383F3DA
:1007E40011882846BDE8F88F70B4DDE90345043369
:1007F40001720599C36104FB032600238661C4606A
:100804000462C0E90C51C0E90000C0E9042242625C
:10081400C0E90A3370BC704710B4D0E90841002223
:10082400C460C0E90411C0E90A226FF001015DF857
:10083400044B04F081BE00BFD0E904239A4204D0E3
:10084400184650F8043B0B607047C268002AF7D082
:100854000020704710B4D0E906144369C2682344E9
:100864008B42436102F1010228BF436AC26028BF80
:10087400436100215DF8044B04F04EBE70B52023A3
:1008840004460E4683F31188836AFBB11E70D4E9D3
:100894000A3201339342A36214D3E2692369A16942
:1008A400043A1A60E069E26803448B42236124BF7E
:1008B400636A2361013A236BE2600022A2620BB1F6
:1008C40020469847002080F3118870BD154605E046
:1008D400237A7BB904F00CFE00280DDBE36829467B
:1008E4002046002BF4D02269E169131D0A44C4E9AF
:1008F4000A32CBE76FF00100002383F3118870BD47
:100904002DE9F84F04460D46174699464FF0200A44
:100914008AF311880026B046A06A002845D0E36A0D
:10092400A7EB060B1B1A9B4528BF9B46BBF1400F48
:1009340047D905F14003D5F800C06968AA68D5F81D
:100944000CE0C0F80CE010359D42C0F800C04160D6
:10095400826000F11000EED1A36A40334036A362F6
:10096400E26A9A4214D8E2692369A169043A1A60D6
:10097400E069E268C4F8288003448B42236124BF01
:10098400636A2361236B013AE2600BB12046984706
:1009940088F31188BE4221D28AF31188BCE7237AF6
:1009A400CBB904F0A5FD002815DBE36849462046D1
:1009B400002BF4D02369E269181D1344C4E90A0327
:1009C400AEE729465A4605F0ADFEA36A5B445E4491
:1009D4005D44A362C4E7002383F311883046BDE875
:1009E400F88F00BFD0E904239A4201D00020704759
:1009F400C368002BFAD0836A002BF7D0043B9B1A00
:100A0400F4D010B41360D0E90614C3682244013B47
:100A14008A42C36028BF436A026128BF036100237E
:100A240083625DF8044B0120704700BF30B4029C20
:100A3400046200250A4485600261C0E90000C160C7
:100A4400C0E90511C36130BC704700BFD0E905326D
:100A5400934211D0826810B501325C1C82604461FB
:100A64001970D0E904329A4201D3C368436100216A
:100A740004F052FD002010BD8268002AEAD04FF035
:100A8400FF30704770B5202304460E4683F3118867
:100A940003E004F02DFD00281ADBA568314620464A
:100AA400002DF6D0A169A36820694A1C013B82424B
:100AB400A360A26128BFE3680D7828BFA361E3693E
:100AC4000BB120469847002383F31188284670BD54
:100AD40085F3118870BD00BF2DE9F04F85B0CDE9D5
:100AE4000232D0F81C904FF0200A8AF311883AB3EE
:100AF40004460F4616464FF0000BA268A1699642C1
:100B040022698CBFA5683546A2EB0108A84540D8E8
:100B14002BD32A46384605F005FEE268A261A26896
:100B2400521BA2609DB1B9F1000F01D02046C84705
:100B34008BF31188761B2F448AF31188002EDCD1A5
:100B44000398002383F3118805B0BDE8F08F029960
:100B5400204604F0CDFC0028CFD0039B981B002333
:100B640083F3118805B0BDE8F08FA5EB0803424676
:100B74003846019305F0D6FD07EB0800DDF8048044
:100B8400E168424605F0CEFDE2684346D318A3610E
:100B9400C5E72A46384605F0C5FDA2692A44A26184
:100BA400BDE700BF30B4029C82608D18C0E9031514
:100BB400C0E90734C0E90000C0E9051130BC704742
:100BC400F8B504460F461646202383F3118803E044
:100BD40004F08EFC002818DBA56831462046002D61
:100BE400F6D06269A368511C013B6161A360177070
:100BF400D4E904329A4224BFE3686361E36903B130
:100C04009847002080F31188F8BD85F31188F8BD5A
:100C140038B5D0E905239A420FD082680569591C7A
:100C2400013282608161A9421C7801D3C368836167
:100C3400002104F071FC204638BD8268002AECD003
:100C44004FF0FF3038BD00BF2DE9F04F85B0CDE93E
:100C54000232D0F81C904FF0200A8AF311883AB37C
:100C640004460F4616464FF0000BA2689642D4E99C
:100C740004208CBFA5683546A2EB0008A84540D8DF
:100C84002BD32A46394605F04DFDE2686261A2681D
:100C9400521BA2609DB1B9F1000F01D02046C84794
:100CA4008BF31188761B2F448AF31188002EDCD134
:100CB4000398002383F3118805B0BDE8F08F0299EF
:100CC400204604F015FC0028CFD0039B981B00237A
:100CD40083F3118805B0BDE8F08FA5EB0803424605
:100CE4003946019305F01EFD07EB0801DDF8048089
:100CF400E068424605F016FDE2684346D318636196
:100D0400C5E72A46394605F00DFD62692A44626149
:100D1400BDE700BF01F0E8B8002301220270C0E97A
:100D24000133C0E903334361183004F05BBC00BFF6
:100D340001F0D6BA002310B400F10801012400F137
:100D440010020470C0E90211C0E904224360C0E942
:100D54000633C0E908335DF8044B704701F052BE16
:100D640001220023027043600C3004F03BBC00BF3E
:100D740003F0F2BA0122002302704360704700BFFF
:100D840003F0C8BB0023012202704360C3600374F4
:100D9400704700BF0C30FFF79FBE00BF0C304FF010
:100DA400FF33FFF799BE00BF3030FFF74DBF00BFE0
:100DB40030304FF0FF33FFF747BF00BF0C30FFF771
:100DC40061BE00BF0C304FF0FF31FFF75BBE00BFC8
:100DD4003030FFF7F5BE00BF30304FF0FF32FFF781
:100DE400EFBE00BF0020704703F07ABC70B50E4B15
:100DF400044682B040F8043B0126009415460B4695
:100E0400606004F1540104F10C0026721022FFF713
:100E14000DFE00942B4604F1640104F1300010220D
:100E2400FFF7C0FE02B070BDE067000838B5436943
:100E340004460D463BB1294604F10C00FFF706FEBB
:100E440000280BDB38BD0421084404F07DFC29464E
:100E540004F10C00FFF7FAFD0028F3DA201D4FF42B
:100E64008061BDE8384004F06FBC00BF10B5446B2E
:100E7400D4F88C2413681978042982B001D002B004
:100E840010BD217A0229FAD111791A8901238B40E4
:100E94001342F4D101A904F14400FFF7CDFCD4F8C6
:100EA4008C44019B21790246206800F03BFAE6E776
:100EB4000C30FFF727BC00BF0C304FF0FF33FFF7B7
:100EC40021BC00BF4430FFF71BBD00BF44304FF0CE
:100ED400FF33FFF715BD00BF0C30FFF7D7BB00BFD2
:100EE4000C304FF0FF31FFF7D1BB00BF4430FFF7A8
:100EF400C5BC00BF44304FF0FF32FFF7BFBC00BF9A
:100F04000020704710B5446BD4F88C24136819780A
:100F1400042900D010BD217A0229FBD111795A8904
:100F240001238B401342F5D104F10C00FFF78CFB35
:100F34000028EFD0D4F88C34024659791868BDE8FB
:100F440010404FF4807300F0D9B900BF704700BF60
:100F5400F0B50346114A43F8042B85B0104F0290B4
:100F64000125022604464360057200F17C022946ED
:100F74000C30CDE900674FF48073FFF741FB094B58
:100F8400019302940096294604F5217204F1440069
:100F94004FF48073FFF728FC05B0F0BD0868000823
:100FA400090F0008710E00080B68202282F31188D3
:100FB4000A7903EB820290614A79093243F82200EC
:100FC4008A7912B103EB8203986102230372C0F899
:100FD4008C14002383F31188704700BF38B5037D58
:100FE40013B190F84C30B3B9044601250221043002
:100FF40004F0AAFB04F10C0025756FF0010104F064
:101004009BFA84F84C5004F144006FF00101BDE8F0
:10101400384004F091BA38BD10B5012104460430BB
:1010240004F092FB0023237584F84C3010BD00BFFC
:1010340070B5044600F10C0630460025FFF7F8FAB7
:1010440004F144002575FFF7E7FB012184F84C50B7
:10105400201D04F079FBD4F88C2413681978042932
:1010640000D070BD217A0229FBD111795A8901235C
:101074008B401342F5D13046FFF7E6FA0028F0D052
:10108400D4F88C34024659791868BDE870404FF49E
:10109400807300F033B900BF90F8443003F060036C
:1010A400202B01D00020704790F84530202BF9D335
:1010B400212B07D8074B836307220023C0E90F23A2
:1010C40001207047222BEDD10023C0E90E330364C5
:1010D4000120704700080020D0F88C241368197888
:1010E400042900D07047017A0229FBD111791A89A9
:1010F40001238B401342F5D130B500F1440583B090
:1011040004462846FFF76EFC08B903B030BD01A9B8
:101114002846FFF791FBD4F88C44019B21790246C1
:10112400206800F0FFF8F0E7F0B500EB810383B02E
:101134009C69ECB10E460546202383F3118800EB2D
:101144008107201D082104F0FFFAFB685B691B6816
:101154004434FBB9204601A9FFF76EFB50B10246A7
:1011640031462846019B00F0DDF8002383F3118803
:1011740003B0F0BDFB685A691268002AF5D01B8AD7
:10118400013B1340F1D1314605F14402284600F0F9
:10119400C9F8EAE72046FFF75DFB204601A9FFF7FF
:1011A4004BFB0028DBD1E5E7093138B550F8214085
:1011B40094B1202383F31188D4F88C2411685379D3
:1011C40001EB8303DB689B695D68FDB90B78042B35
:1011D40003D0002383F3118838BD237A022BF8D17E
:1011E40010794A89012383401342F2D104F10C009F
:1011F400FFF72AFA0028ECD0D4F88C340246597947
:1012040018684FF4807300F079F8E2E7042160185D
:1012140004F09AFA294604F10C00FFF721FAD4F8F5
:101224008C2411680B78042BD3D1D6E7704700BF08
:1012340002F0D4BE012200230270C0E901337047DA
:1012440010B52023044683F31188416002F006FFA1
:1012540002232370002383F3118810BD03F0E2BC42
:101264000023012202704370837043600372C0E95B
:101274000333704710B52023044683F3118841607B
:1012840003F0FEFC02232370002383F3118810BDB6
:1012940002F032B90023012202704360C361836209
:1012A4000362C362436203638360704738B50446D4
:1012B400202383F3118800254160C0E90355C0E968
:1012C400055502F029F90223237085F3118838BDEE
:1012D40010B4536900EB8104E26023B100241C6064
:1012E4005C609C60DC60936923B100221A605A60E0
:1012F4009A60DA605DF8044B02F060BBF0B400EB76
:1013040081044789D4F80CC00124DCF818508C40BF
:101314003C4300274481AA60C5E90037F0BC02F0D1
:1013240019BD00BFF0B400EB81040789D4F80CC0E8
:101334000124DCF814508C403C4300270481AA604B
:10134400C5E90037F0BC02F045BD00BF70B502230B
:10135400002504460370C564C0E90255C0E904557C
:10136400856180F8345002F02DFA63681B6823B15C
:1013740029462046BDE87040184770BD426812688F
:1013840010B40521047880F8504001701AB104218A
:101394005DF8044B10475DF8044B7047426890F8C1
:1013A4005010126801700AB105211047704700BF40
:1013B40090F8343070B5044613B1002380F834300B
:1013C40004F14402204602F0BBFC63689B6863B3EB
:1013D4002046984748B3E16B94F8443094F84B00A6
:1013E40094F84A2042EA00228A422CBF0A46E26369
:1013F400190600F18A80002A5AD0152384F8343063
:10140400202383F31188E36862899B69D4E90E6120
:1014140042F0010200256281204683E862002946E9
:1014240002F098FC85F3118870BD94F8443013F0F1
:101434006005184611D00021204602F029FD002144
:10144400204602F01BFD63681B6813B10621204689
:101454009847062384F8343070BD94F8451003F09F
:101464007F0242EA012240F202318A4200F0F18016
:1014740035D8022A00F0D68040F2AF80B2F5817FE1
:1014840000F0B380B2F5407F00F08780B2F5807F32
:10149400D1D194F84630012BCDD1B4F84C30A563AA
:1014A400C4E90F5523F00203A4F84C30030645D4D5
:1014B4000B2384F83430202383F31188E3682289D2
:1014C4005B69002542F00102228120469D60C3E948
:1014D4000055294602F07EFC85F3118870BD40F268
:1014E40001618A4268D9B2F5106F3ED040F60241DC
:1014F4008A4200F09080B2F5006F9CD104F14F0253
:1015040001212564C4E90E2168E7BAB1092384F8EE
:101514003430202383F31188E36822895B69D4E99A
:101524000E6142F0010200252281204683E8620018
:10153400294602F04FFC85F3118870BD142384F80A
:101544003430202383F31188E36862899B69002582
:1015540042F00102628120469D60C3E9005529469C
:1015640002F0F8FB85F3118870BD2378042B00F09A
:10157400B38094F846304BB1626884F84F301368F6
:101584000422227013B10221204698470023C4E9A3
:101594000E33236494F8440088E794F84630012B12
:1015A4007FF449AFB4F84C30A56343F00203C4E9B7
:1015B4000F55A4F84C3079E7B2F5C06F5BD2B2F5A1
:1015C400A06F7FF438AFB4F84430B3F5A06F71D096
:1015D4000023C4E90E33236468E7CAB904F14C005C
:1015E40002212264C4E90E01F8E694F84630002B87
:1015F4007FF421AF94F8483013F00F01E8D01E06B1
:10160400204600F1888002F04DFC94F84400DFE7A6
:10161400012A7FF410AF454AA26302210022C4E9E3
:101624000F12DBE694F8483003F00F011B06204646
:101634003AD402F069FB01283AD002287FF4FBAEC9
:101644003B4BA36302210023C4E90F1394F84430F5
:10165400C4E694F84630002B7FF4EDAE94F848309D
:1016640013F00F01B4D01D06204659D402F006FC35
:1016740094F84400ACE794F84900616894F8483061
:101684004E6894F8462094F8471043EA0023204615
:10169400B04700283FF4CFAED0E900132564C4E975
:1016A4000E3194F8443099E602F03CFB0128C4D191
:1016B400204BC6E794F8463084F84E30204602F0BA
:1016C40071F963681B6813B101212046984703230D
:1016D40094F8440023707BE7202383F31188228944
:1016E4006389256102F0010203F00103C4E9055591
:1016F40022816381204602F013FA85F3118863681E
:1017040084F84F501B6803212170002B3FF431AF44
:10171400204698472DE702F0CFFB94F8440057E7A2
:1017240002F0B6FB94F8440052E700BF38680008A2
:10173400306800083468000838B590F8343004463E
:10174400152B1CD8DFE803F00B1B1B1B1B1B0B1BEF
:101754001B1C2C431B1B1B1B1B1B1B1B0B0B0021D0
:1017640002F096FB0021204602F088FB63681B68A8
:1017740013B1062120469847062384F8343038BD37
:1017840090F84B1090F84A30C26B43EA01239A4216
:1017940006D2C3681B8AB2FBF3F503FB1525EDB132
:1017A400142384F83430202383F31188E368628996
:1017B4009B69002542F00102628120469D60C3E9D5
:1017C4000055294602F0C6FA85F3118838BD036C2A
:1017D40003B19847002384F8343038BD202383F3C1
:1017E4001188C36802895B6942F0010202812946BB
:1017F4009D60C3E9005502F0EDFA85F311880A23D0
:1018040084F8343038BD00BF90F83420152A15D838
:1018140038B50123934040F641621342044625D172
:1018240013F480150BD0C3689B695B682BB9036CF8
:1018340003B19847002384F8343038BD70479B02C5
:10184400FBD50B2380F83430202383F31188C3683D
:1018540002895B6942F00102028129469D60C3E965
:10186400005502F0B7FA85F3118838BD002102F063
:101874000FFB0021204602F001FB63681B6813B1D3
:10188400062120469847062384F8343038BD00BF2B
:10189400430910B49B0000F1604404F5614403F172
:1018A4006043090103F5614300F01F000122C9B23E
:1018B40084F8001302FA00F0C3F880015DF8044BC9
:1018C400186070470849430910B4203300F01F041E
:1018D40001220844A240002441F8232080F8004358
:1018E4005DF8044B704700BF00E100E00D4A08B505
:1018F400516913680B4003F00103536173B10A4A41
:1019040093680BB1D0689847202383F31188002192
:10191400054803F011FE002383F31188BDE8084055
:1019240004F03CB8003C0140600900200D4A08B5B1
:10193400516913680B4003F00203536173B10A4AFF
:1019440093690BB1D0699847202383F31188002150
:10195400064803F0F1FD002383F31188BDE8084035
:1019640004F01CB8003C014060090020700900200C
:101974000D4A08B5516913680B4003F00403536121
:1019840073B10A4A936A0BB1D06A9847202383F350
:1019940011880021064803F0CFFD002383F311884A
:1019A400BDE8084003F0FABF003C01406009002094
:1019B400800900200D4A08B5516913680B4003F0F3
:1019C4000803536173B10A4A936B0BB1D06B984708
:1019D400202383F311880021064803F0ADFD002382
:1019E40083F31188BDE8084003F0D8BF003C0140F0
:1019F40060090020900900200D4A08B55169136858
:101A04000B4003F01003536173B10A4A936C0BB19A
:101A1400D06C9847202383F311880021064803F0F3
:101A24008BFD002383F31188BDE8084003F0B6BFA3
:101A3400003C014060090020A0090020324B10B591
:101A44005A691C68144004F478725A61A3060ED5CE
:101A54002E4A936D0BB1D06D9847202383F31188E0
:101A640000212B4803F068FD002383F311886006EE
:101A74000ED5264A936E0BB1D06E9847202383F37C
:101A840011880021234803F057FD002383F31188B4
:101A940021060ED51D4A936F0BB1D06F98472023B2
:101AA40083F3118800211C4803F046FD002383F3CF
:101AB4001188E20510D5154AD2F8883013B1D2F84E
:101AC4008C009847202383F311880021134803F0E6
:101AD40033FD002383F31188A30510D50B4AD2F8F4
:101AE400983013B1D2F89C009847202383F31188CF
:101AF40000210B4803F020FD002383F31188BDE887
:101B0400104003F04BBF00BF003C014060090020BF
:101B1400B0090020C0090020D0090020E0090020FD
:101B2400F00900203E4B10B55A691C68144004F4B7
:101B34007C425A61620510D53A4AD2F8A83013B1F2
:101B4400D2F8AC009847202383F31188002136484B
:101B540003F0F2FC002383F31188230510D5314AE6
:101B6400D2F8B83013B1D2F8BC009847202383F3DD
:101B7400118800212D4803F0DFFC002383F3118832
:101B8400E00410D5274AD2F8C83013B1D2F8CC00FB
:101B94009847202383F311880021254803F0CCFCC7
:101BA400002383F31188A10410D51E4AD2F8D8303B
:101BB40013B1D2F8DC009847202383F31188002165
:101BC4001C4803F0B9FC002383F31188620410D588
:101BD400144AD2F8E83013B1D2F8EC009847202325
:101BE40083F311880021144803F0A6FC002383F337
:101BF4001188230410D50B4AD2F8F83013B1D2F867
:101C0400FC009847202383F3118800210B4803F03C
:101C140093FC002383F31188BDE8104003F0BEBE9B
:101C2400003C014060090020000A0020100A002046
:101C3400200A0020300A0020400A0020500A002018
:101C4400062108B50846FFF723FE06210720FFF703
:101C54001FFE06210820FFF71BFE06210920FFF7BF
:101C640017FE06210A20FFF713FE06211720FFF7AF
:101C74000FFE06212820BDE80840FFF709BE00BF7B
:101C8400224B23481A696FEAC2526FEAD25210B546
:101C94001A611A69C2F308021A614FF0FF341A6913
:101CA4005A695C6100215A6959615A691A6A62F079
:101CB40080521A621A6A02F080521A621A6A5A6AC6
:101CC4005C625A6A59625A6A1A6C42F080521A6407
:101CD4001A6E42F080521A661A6E026842F48072DA
:101CE40002601A6F02F44072B2F5007F03D04FF421
:101CF40080321A671967064A536823F400735360E5
:101D040000F0CAFCBDE81040FFF79ABF003802405B
:101D140000700040334B344A4FF080504FF4404140
:101D2400186411601A6842F001021A601A68920776
:101D3400FCD599682B4A21F003019960936813F04C
:101D44000C03FBD11068274900F0F9001060936080
:101D5400136843F4803313600B689803FCD54B6F0E
:101D6400204A43F001034B67536F9907FCD51F4B7F
:101D7400536013681C4943F0807313604B685A0422
:101D8400FCD5184A13689B01FCD519499160194B7D
:101D94000321C2F88C101A68174B9A4217D0174BBC
:101DA40040F205721A600F4A936843F0020393608D
:101DB400936803F00C03082BFAD1536C43F480436B
:101DC4005364536E43F480435366536E70470C4A16
:101DD4000C4B12689A42E2D1084B40F205121A6089
:101DE400E1E700BF00380240007000400C54400797
:101DF40000948838002004E011640020003C024074
:101E040000ED00E041C20F41344A70B5156800216D
:101E1400AB0611602CD405F001052DB3304C2269BA
:101E240012B3A36A956800225A609A68012122F0CD
:101E340080429A609960002D48D0052323700221C6
:101E44002046A8472378052B04BF022323700023D0
:101E54002361202383F311884FF0FF31214803F0DD
:101E64003DFB002383F31188BDE8704003F096BD69
:101E74001B4CE26A1268526805F00105002ACCD0B6
:101E84002269002AF0D0A36A966859609A680121F1
:101E940022F080429A609960E6B1052323702046BF
:101EA400B0472378052B04BF02232370002323614A
:101EB400202383F311884FF0FF310A4803F00EFB0F
:101EC400002383F31188002DA8D1CDE702232561D7
:101ED4002370BEE7022326612370E9E70020014056
:101EE400500800206408002010B5084C2046FEF776
:101EF40013FF074A074BA2620022C4E90B23062101
:101F04001220BDE81040FFF7C3BC00BF50080020FA
:101F140000200140162C02002F4A916A8B682DE99B
:101F2400F0478B6013F0010145D003F00C0C2B49F2
:101F3400DFF8C8A0DFF8C890294EDFF8C8E02948C8
:101F4400294C2A4FDFF8C080294DBCF1000F01BF96
:101F54008C465646CE46052015BF4FF4A0240727CD
:101F64004FF4E028032516BF4FF4403C01214FF401
:101F7400803113F4807F05D013F4406F28D070466D
:101F840044466146DD0304D513F4402F14BF2146B3
:101F94000146D3690BB110489847202383F3118875
:101FA4000021144803F0C8FA002383F31188BDE824
:101FB400F04703F0F3BC104EDFF850E004204FF478
:101FC400802406274FF4C02802254FF4003CD0E7B4
:101FD400384634462946D5E784080020010002002B
:101FE40002000500040001000100040006000100D5
:101FF400020001008C080020020004000300040019
:1020040005000200040003000100060004000200B1
:1020140070B5124CA36ADD68AA0712D05A69A66982
:1020240022F002025A6116B101212046B047202352
:1020340083F3118800210A4803F07EFA002383F316
:102044001188EB0606D5A26A236A1021D1600BB170
:1020540002489847BDE8704003F0A0BC8408002003
:102064009408002070B5124CA36A1D69AA0712D007
:102074005A69A66922F010025A6116B1022120465B
:10208400B047202383F3118800210A4803F054FA4F
:10209400002383F31188EB0606D5A26A236A102174
:1020A40011610BB102489847BDE8704003F076BC5B
:1020B400840800209408002070B50F4CA36A5D6862
:1020C4005D602A070AD51A68666A22F002020321B3
:1020D40021701A6016B100212046B0476B0706D55F
:1020E400A26A236A916913B1090403489847BDE8B9
:1020F400704003F053BC00BF840800202F4A916A4B
:102104008B682DE9F0478B6013F0010145D003F093
:102114000C0C2B49DFF8C8A0DFF8C890294EDFF873
:10212400C8E02948294C2A4FDFF8C080294DBCF16A
:10213400000F01BF8C465646CE46052015BF4FF40E
:10214400A02407274FF4E028032516BF4FF4403C92
:1021540001214FF4803113F4807F05D013F4406FD4
:1021640028D0704644466146DD0304D513F4402F5D
:1021740014BF21460146D3690BB110489847202368
:1021840083F311880021144803F0D6F9002383F364
:102194001188BDE8F04703F001BC104EDFF850E0B1
:1021A40004204FF4802406274FF4C02802254FF45E
:1021B400003CD0E7384634462946D5E7B00800202D
:1021C40001000200020005000400010001000400F7
:1021D4000600010002000100B8080020020004000B
:1021E40003000400050002000400030001000600CF
:1021F4000400020070B5124CA36ADD68AA0712D06D
:102204005A69A66922F002025A6116B101212046D8
:10221400B047202383F3118800210A4803F08CF986
:10222400002383F31188EB0606D5A26A236A1021E2
:10223400D1600BB102489847BDE8704003F0AEBBD3
:10224400B0080020C008002070B5124CA36A1D69B4
:10225400AA0712D05A69A66922F010025A6116B16F
:1022640002212046B047202383F3118800210A4825
:1022740003F062F9002383F31188EB0606D5A26A02
:10228400236A102111610BB102489847BDE87040E0
:1022940003F084BBB0080020C008002070B50F4CC8
:1022A400A36A5D685D602A070AD51A68666A22F027
:1022B4000202032121701A6016B100212046B047A2
:1022C4006B0706D5A26A236A916913B1090403480E
:1022D4009847BDE8704003F061BB00BFB008002020
:1022E40038B53B4C3B4D2046FEF724FD3A4BA362E8
:1022F4000B211320FFF7CCFA0B211420FFF7C8FAA7
:102304000B211520FFF7C4FA0B211620FFF7C0FAA2
:102314002846FEF70FFD314BAB620B213F20FFF740
:10232400B7FA0B214020FFF7B3FA0B214120FFF746
:10233400AFFA0B214220FFF7ABFA294AA36A106CCB
:10234400284C40F000701064106E40F0007010666D
:10235400116ED3F80002204040F00100C3F80002DF
:10236400D3F80012214041F46061002041F00101E2
:102374000124C3F80012C3F84002C3F84402C3F8AE
:10238400B002C3F8B402C3F80402C3F81402C3F8D9
:102394000C42C3F81C42D3F80C1241F48041C3F838
:1023A4000C12D3F81C1241F48041C3F81C12D3F868
:1023B400001221F00101C3F80012136C23F0007322
:1023C4001364136E23F000731366136E38BD00BFDD
:1023D40084080020B0080020006400400068004029
:1023E400003802400000FFFF08B5074B0748196892
:1023F400426801F03D0199600AB180689047BDE8E8
:10240400084003F0CBBA00BF00600240DC080020A3
:10241400084B09481968C268890901F03D0110B5E3
:102424008C019C600AB100699047BDE8104003F03C
:10243400B5BA00BF00600240DC080020084B094820
:1024440019684269090C01F03D0110B50C049C6047
:102454000AB180699047BDE8104003F09FBA00BFFD
:1024640000600240DC080020084B09481968C26972
:10247400890D01F03D0110B58C059C600AB1006A1C
:102484009047BDE8104003F089BA00BF00600240E5
:10249400DC08002008B5074B07485968426A01F078
:1024A4003D01D9600AB1806A9047BDE8084003F055
:1024B40075BA00BF00600240DC080020084B0948E0
:1024C4005968C26A890901F03D0110B58C01DC60CC
:1024D4000AB1006B9047BDE8104003F05FBA00BF3B
:1024E40000600240DC080020084B09485968426B30
:1024F400090C01F03D0110B50C04DC600AB1806BDD
:102504009047BDE8104003F049BA00BF00600240A4
:10251400DC080020084B09485968C26B890D01F09A
:102524003D0110B58C05DC600AB1006C9047BDE834
:10253400104003F033BA00BF00600240DC08002002
:1025440008B5074B07481968426C01F03D019960D2
:102554000AB1806C9047BDE8084003F01FBA00BF81
:1025640000640240DC080020084B09481968C26C6A
:10257400890901F03D0110B58C019C600AB1006D20
:102584009047BDE8104003F009BA00BF0064024060
:10259400DC080020084B09481968426D090C01F059
:1025A4003D0110B50C049C600AB1806D9047BDE8F4
:1025B400104003F0F3B900BF00640240DC080020BF
:1025C400084B09481968C26D890D01F03D0110B529
:1025D4008C059C600AB1006E9047BDE8104003F082
:1025E400DDB900BF00640240DC08002008B5074BD9
:1025F40007485968426E01F03D01D9600AB1806E06
:102604009047BDE8084003F0C9B900BF0064024028
:10261400DC080020084B09485968C26E890901F09A
:102624003D0110B58C01DC600AB1006F9047BDE834
:10263400104003F0B3B900BF00640240DC0800207E
:10264400084B09485968426F090C01F03D0110B567
:102654000C04DC600AB1806F9047BDE8104003F0C1
:102664009DB900BF00640240DC080020084B094803
:102674005968C26F890D01F03D0110B58C05DC600D
:1026840012B1D0F880009047BDE8104003F086B93D
:1026940000640240DC080020F0B41E4A1E4C1F49AE
:1026A4001F4D2048204F214E0023C2E90033D36040
:1026B4005361D3615362D3625363D3635364D3646A
:1026C4005365D3655366D3665367703C3B60336090
:1026D4000B602B60236703600B662B66C4F8103411
:1026E400C0F8A033C1F80034C5F80034C4F870341D
:1026F400C0F80034C1F860344FF0FF31C5F86034DD
:10270400D367A160E160C0F88013F0BCC0F8841303
:10271400704700BFDC080020706002404060024047
:102724005860024088600240106002402860024005
:10273400DFF8C4C00F28F8B598BF0746DCF80000DE
:1027440098BF3C46012606FA04F5284205D0013418
:10275400A742F8D200273846F8BD28430CEBC4073B
:10276400CCF80000224E4FEA440CC7E9012315F0CF
:10277400FF0F0CEB040706EB870709D01D4B186B02
:1027840040F400101863186D40F4001018651B6DB8
:1027940015F47F4F09D0174B186B40F48000186371
:1027A400186D40F4800018651B6D0CEB040356F89B
:1027B4002300036823F01F030360036813F001037D
:1027C400FBD1644406EB84063D2496F809C0756881
:1027D40004FA0CF44FF0210C2C600360C0F814C010
:1027E400002AB8D0F07AFFF753F83846F8BD00BF96
:1027F4003C68000800380240DC08002010B52023A3
:10280400044683F31188C07AFFF75CF81249A07A72
:102814000B680122824023EA020313F0FF0F0B60CE
:1028240009D10E4A116B21F400111163116D21F4C9
:1028340000111165126D13F47F4F09D1074B1A6B08
:1028440022F480021A631A6D22F480021A651B6D49
:10285400002383F3118810BDDC08002000380240F7
:10286400314B70B403F1100103F1200503F130047E
:1028740003F14000C3E9041103F150010022C3E94C
:102884000855C3E90C4403F1600503F17004C3E97E
:102894001000C3E9141103F1800003F19001C3E9AE
:1028A400185503F1A006C3E91C4403F1B005C3E9BC
:1028B4000222C3E90622C3E90A22C3E90E22C3E9BC
:1028C4001222C3E91622C3E91A2203F1C004C3E9A0
:1028D4000033C3E91E22C3E92000C3E92222C3E96D
:1028E4002622C3E92A22C3E92E22C3E93222C3E9FC
:1028F4003622C3E93A22C3E93E22C3E9241103F193
:10290400D00003F1E00103F1F002C3E92866C3E952
:102914002C55C3E93044C3E93400C3E93811C3E991
:102924003C2270BC704700BF600900202DE9F04FC5
:1029340002F00309C2F3800EC2F3C10CC2F34117C3
:10294400C846C2F3C31200264FF0010A16E0D0F8BD
:1029540000B003EA0B0343EA0803072E036044D8DC
:10296400036A1D402C43046249083CD04FEA4E0ED2
:102974004FEA8C0CBF004FEA88080136CB07F3D529
:1029840043680AFA06F423EA040343EA0E034360A5
:1029940003257300846805FA03F3DB431C4044EA0F
:1029A4000C048460C56806F00704A4001D404FF0C1
:1029B4000F0B3D430BFA04FBB9F1020FC56002FA99
:1029C40004F46FEA0B05C2D1072E13D8D0F820B057
:1029D4000BEA05052C4304620468234043EA080318
:1029E40049080360C2D1BDE8F08F436A1D402C43FF
:1029F4004462B9E7D0F824B00BEA05052C434462DD
:102A0400EAE700BF0148FEF7ABB900BF600A002047
:102A14002DE9F04FBA4CD4F854A0DAF81420DAF8BF
:102A2400183002EA030B1BF4805585B0CAF814B0C1
:102A340040F05E81BBF1000F4CDB1BF4006F40F0F3
:102A440023811BF4005F0ED0DAF8083813F0060F68
:102A5400DAF80C3023F470530CBF43F4105343F4EE
:102A6400A053CAF80C301BF0080F04D06368DB686D
:102A74000BB1A34898471BF4801F79D11BF4001FA6
:102A840040F00A811BF0100F3BD11BF4002FDAF841
:102A940018580BD0E90300F16083A90300F13883CF
:102AA400690300F11083290300F18B811BF4802F4B
:102AB4000BD0E90700F13F82A90700F1D98169072A
:102AC40000F19E822D0700F11D8105B0BDE8F04F95
:102AD40002F064BFDAF8003E9A0705D0DAF8003E47
:102AE40023F00303CAF8003EDAF80438844823F0DC
:102AF4000103CAF80438FEF751FC1BF4006FA0D0A0
:102B0400C2E0656D2B6A03F4F011B1F5802FC3F3B5
:102B14000A1203F00F0300F07981B1F5402FB4D10C
:102B240004EB8303DB681E6A002AAED0531E072B16
:102B340028BF072300200133014605F5805711F013
:102B4400030F40F08581386806F8010B01318B4290
:102B54004FEA1020F3D19A4297D905F5805513F026
:102B6400030F03F1010308BF29689A42F7D18CE7E8
:102B7400D4F854804FF00009CDE900AB09E009F125
:102B8400010CA36D9B685FFA8CF999454D4600F2E0
:102B9400688108EB4912D2F8003903F44023B3F5F5
:102BA400802FECD1D2F80039002BE8DAD2F80039C2
:102BB40043F09043C2F80039D2F80039002BFBDB14
:102BC400AD01626D45F02005156113699B06FCD4C7
:102BD40009F1020504EB8505122002F0FBF96B688C
:102BE40021899E68012202FA09F221EA0202228165
:102BF4001EB149464248B0476B68D3F814E0626D91
:102C04000292DEE900A7574528BF09F1010C80F0C4
:102C1400F88202EB4912B3F810B0D2F81839AAEBD3
:102C2400070058459BB228BF5846B0EB830F09F103
:102C3400010CA6D8029BDEF80860CDF80C9003EBDB
:102C44000C35914633682B6004280AD9421F22F0C0
:102C5400030204323244334653F8041F296093427A
:102C6400FAD1074406445745CEE9017680F0C7827D
:102C7400AAEB0700D9F8183958459BB228BF584623
:102C8400B0EB830FDED97CE71D48FEF777FB1BF41E
:102C9400005F3FF4E8AED7E6666DDFF86480002598
:102CA400012706E0A36D01359B68EDB29D423FF616
:102CB400E9AE06EB4512D2F8003B03F44023B3F52A
:102CC400802FEFD1D2F8003B002BEBDA04EB850325
:102CD4006289D96807FA05F3D1F80C9022EA030354
:102CE400294640466381B9F1000FDBD0C847D9E7D4
:102CF4002046FEF72BFB05B0BDE8F04F02F04EBEB8
:102D0400840A0020656DD5F86869C5F86869F0071C
:102D140013D5D5F81038D9070FD5A1694B691868B0
:102D2400DA689042C0F0968223898A6823F0080307
:102D3400238112B10321B148904732067FF5C5AE15
:102D4400D5F834381B077FF5C0AEA369D4F854C056
:102D54005E69D6E90075AF4240F25D82B3F810E0D7
:102D6400DCF87839791B714528BF71469BB2B1EB09
:102D7400830F3FF6AAAEB4680CF58040B8462368CA
:102D8400036004290AD94A1F22F0030204322244B0
:102D9400234653F8047F07609342FAD10D440C4450
:102DA400A845C6E9015440F23682A8EB0501DCF8D7
:102DB400783971459BB228BF7146B1EB830FDED9D8
:102DC40083E6666DD6F8687BC6F8687B3A0708D553
:102DD400D6F814381B0704D5A36988485B68032117
:102DE4009847FF077FF562AED6F81438D8077FF509
:102DF4005DAEA2696389D26823F008036381002A67
:102E04003FF454AE03217D4890474FE6981C04EBF1
:102E140080035B689969D1E900378E68DB1B92B146
:102E2400002B40F0CC8105F5805513F0030F03F11E
:102E3400010308BF29689A42F7D804EB80035B6852
:102E44009969D1E9017616443A44C1E901261CE6A0
:102E54000131994206F8010B4FEA10207FF46FAE5E
:102E640079E6DDE900AB1BF4001F3FF40BAE13E77A
:102E7400666DD6F82879C6F82879FA0713D5D6F8F6
:102E84001038DB070FD521694B691868DA6890425E
:102E9400C0F0808223898A6823F00203238112B15F
:102EA4000121564890473F067FF509AED6F83438DD
:102EB40098077FF504AE2369D4F85480D3F814C07E
:102EC400DCE900E7BE4540F2AE81B3F81090D8F8D3
:102ED4003839AEEB0701494528BF49469BB2B1EBEF
:102EE400830F3FF6ECADDCF8086008F50050AA4605
:102EF4003368036004290AD94A1F22F0030204320A
:102F04003244334653F8045F05609342FAD10F44C8
:102F14000E447745CCE9017680F08481AEEB07015D
:102F2400D8F8383949459BB228BF4946B1EB830FDD
:102F3400DED95546C3E5666DD6F80879C6F8087932
:102F4400FA0713D5D6F81038DB070FD5E1684B69BB
:102F54001868DA689042C0F0E98123898A6823F00E
:102F64000103238112B10021244890473F067FF5D5
:102F7400A3ADD6F83438D8077FF59EADE368D4F80E
:102F84005480D3F814C0DCE900E7774580F053811E
:102F9400B3F81090D8F81839AEEB0701494528BFAB
:102FA40049469BB2B1EB830F3FF686ADDCF808606F
:102FB40008F58050AA463368036004290AD94A1FD9
:102FC40022F0030204323244334653F8045F0560AE
:102FD4009A42FAD10F440E447745CCE9017680F049
:102FE4002981AEEB0701D8F8183949459BB228BFAF
:102FF4004946B1EB830FDED955465DE5840A0020CE
:10300400666DD6F84879C6F84879FA0713D5D6F824
:103014001038DB070FD561694B691868DA6890428C
:10302400C0F04D8123898A6823F00403238112B1FF
:103034000221BD4890473F067FF544ADD6F83438A9
:103044005E077FF53FAD6369D4F85480D3F814C0AC
:10305400DCE900E7BE4540F2F680B3F81090D8F8FA
:103064005839AEEB0701494528BF49469BB2B1EB3D
:10307400830F3FF627ADDCF8086008F54050AA46F8
:103084003368036004290AD94A1F22F00302043278
:103094003244334653F8045F05609342FAD10F4437
:1030A4000E447745CCE9017680F0CC80AEEB070185
:1030B400D8F8583949459BB228BF4946B1EB830F2C
:1030C400DED95546FEE4666DD6F8487BC6F8487BE3
:1030D4003A0708D5D6F814381B0704D56369924813
:1030E4005B6802219847FF077FF5DDACD6F81438FA
:1030F400D8077FF5D8AC62696389D26823F00403EA
:103104006381002A3FF4CFAC022187489047CAE488
:10311400666DD6F8287BC6F8287B3A0708D5D6F81A
:1031240014381B0704D523697F485B68012198473D
:10313400FF077FF5B5ACD6F81438D8077FF5B0ACE7
:1031440022696389D26823F002036381002A3FF471
:10315400A7AC012174489047A2E4666DD6F8087BB9
:10316400C6F8087B3A0708D5D6F814381B0704D5E7
:10317400E3686D485B6800219847FF077FF58DACD5
:10318400D6F81438D8077FF588ACE2689169508A7C
:103194004E68B6FBF0F300FB136323B90E68C868EE
:1031A4008642C0F06A816389D26823F00103638197
:1031B400002A3FF472AC00215B4890476DE49342CF
:1031C40028BF13461F460023194605F5805C13F0FB
:1031D400030F0CD1DCF8001006F8011B0133BB42CD
:1031E4004FEA1121F3D39A423FF61DAE25E601338F
:1031F400BB4206F8011B4FEA1121E8D3F3E7DDE9EE
:103204000229D2F83438012101FA09F923EA090321
:10321400C2F83438B5E4DCF8343823F00803CCF8C9
:10322400343852E45546D8F8343823F00203C8F849
:10323400343844E45546D8F8343823F00103C8F848
:10324400343839E45546D8F8343823F00403C8F840
:10325400343837E4121A0021C3E90021202383F310
:103264001188A1694B691A68DA60002A40F0C580A8
:10327400636D4FF40022C3F870290A6802F0030258
:10328400012A0CD1D3F8082812F4807FD3F86029DE
:1032940014BF42F0805242F00052C3F86029D3F8C0
:1032A400602942F00442C3F86029D3F8342842F07C
:1032B4000802C3F83428002383F311883DE5121A69
:1032C4000021C3E90021202383F3118861694B693C
:1032D4001A68DA60002A40F0C180636D4FF400225E
:1032E400C3F850290A6802F00302012A0CD1D3F86A
:1032F400082812F4807FD3F8402914BF42F080528A
:1033040042F00052C3F84029D3F8402942F0044265
:10331400C3F84029D3F8342842F00402C3F834280F
:10332400002383F3118886E6840A0020121A002100
:10333400C3E90021202383F31188E1684B691A68EB
:10334400DA60002A75D1636D4FF40022C3F81029A6
:103354000A6802F00302012A0CD1D3F8082812F4F7
:10336400807FD3F8002914BF42F0805242F000520B
:10337400C3F80029D3F8002942F00442C3F8002915
:10338400D3F8342842F00102C3F83428002383F32D
:103394001188EBE5121A0021C3E90021202383F3ED
:1033A400118821694B691A68DA609ABB636D4FF41E
:1033B4000022C3F830290A6802F00302012A0CD162
:1033C400D3F8082812F4807FD3F8202914BF42F0E0
:1033D400805242F00052C3F82029D3F8202942F049
:1033E4000442C3F82029D3F8342842F00202C3F877
:1033F4003428002383F3118855E50F8A636DD019AF
:1034040042F000520138B0FBF7F042EAC042C3F880
:10341400702932E7B1F810C0636D02EB0C0042F082
:1034240000520138B0FBFCF042EAC042C3F8302934
:10343400C1E7402AB1F810E085BFDFF8B8C04022E8
:1034440042F0005C1A600EF1FF30636D0244B2FB7F
:10345400FEF24CEAC242C3F8102979E7B1F810C071
:10346400636D02EB0C0042F000520138B0FBFCF03B
:1034740042EAC042C3F8502934E7801BC1E9000383
:10348400202383F31188E268936916681968D96068
:10349400402984BF40211960538A626D581E01443B
:1034A400B1FBF3F101FB03F3033323F0030343EA1A
:1034B400C14306F0030143F0C0430129C2F8103BA5
:1034C4000CD1D2F8083813F4807FD2F8003B14BF33
:1034D40043F0805343F00053C2F8003BD2F8003B62
:1034E40043F00443C2F8003B002383F31188FFF741
:1034F400D4BA00BF4000002010B5054C2046FDF7AB
:10350400C9FE044B4FF0A042C4E9152310BD00BF0F
:10351400840A0020206900080378012B00D070473A
:10352400A24B984270B50646456D00F020812C46AA
:103534000021C0224FF43413C5F8001E2A60AB6387
:103544002369002BFCDA012323610C2001F042FDE6
:103554002369DB07FCD4122001F03CFD2369002B16
:10356400FCDAD6E9153294684FF0FF310022AA60E4
:10357400C3F80029C3F81029C3F80819C3F8002BAD
:10358400C3F8102BC3F8081B002C00F0D580012CC5
:10359400C3F82029C3F83029C3F82819C3F8202B0D
:1035A400C3F8302BC3F8281B40F2C680022CC3F8A2
:1035B4004029C3F85029C3F84819C3F8402BC3F86D
:1035C400502BC3F8481B00F0B780032CC3F86029C4
:1035D400C3F87029C3F86819C3F8602BC3F8702BBB
:1035E400C3F8681B00F0A880042CC3F88029C3F832
:1035F4009029C3F88819C3F8802BC3F8902BC3F81B
:10360400881B00F09980052CC3F8A029C3F8B029C1
:10361400C3F8A819C3F8A02BC3F8B02BC3F8A81B90
:1036240000F08A80062CC3F8C029C3F8D029C3F857
:10363400C819C3F8C02BC3F8D02BC3F8C81B7BD060
:10364400072CC3F8E029C3F8F029C3F8E819C3F834
:10365400E02BC3F8F02BC3F8E81B6DD0082CC3F89B
:10366400002AC3F8102AC3F8081AC3F8002CC3F8B8
:10367400102CC3F8081C5FD0092CC3F8202AC3F807
:10368400302AC3F8281AC3F8202CC3F8302CC3F806
:10369400281C51D00A2CC3F8402AC3F8502AC3F876
:1036A400481AC3F8402CC3F8502CC3F8481C43D024
:1036B4000B2CC3F8602AC3F8702AC3F8681AC3F83D
:1036C400602CC3F8702CC3F8681C35D00C2CC3F8DC
:1036D400802AC3F8902AC3F8881AC3F8802CC3F848
:1036E400902CC3F8881C27D00D2CC3F8A02AC3F84B
:1036F400B02AC3F8A81AC3F8A02CC3F8B02CC3F896
:10370400A81C19D00E2CC3F8C02AC3F8D02AC3F8B9
:10371400C81AC3F8C02CC3F8D02CC3F8C81C0BD0EB
:10372400C3F8E02AC3F8F02AC3F8E81AC3F8E02C77
:10373400C3F8F02CC3F8E81C7268D1684FF001108C
:103744000022C3F81C08C5F81028C5F81428C5F8C9
:103754001C2849B1164BAB614FF0FF336B61AB686A
:1037640043F00103AB6070BD124BAB61F4E7124B45
:103774005A6B42F080025A635A6D42F080025A65D5
:103784005A6D5A6942F080025A615A6922F08002E5
:103794005A610E2143205B69FEF77AF8074A084B09
:1037A400EA60746DC5F80038C2E600BF840A0020E0
:1037B400083C30C0003C30C0003802404014004097
:1037C4000300200270B5446D202306462361256959
:1037D40015F02005FBD1122001F0FCFBB06DC4F8FC
:1037E400345881684FF000624FF0FF334FF00115F9
:1037F400C4F81C58C4F80029C4F8002BC4F80839CC
:10380400C4F8083B002900F095800129C4F8202958
:10381400C4F8202BC4F82839C4F8283B40F28A8025
:103824000229C4F84029C4F8402BC4F84839C4F824
:10383400483B7FD00329C4F86029C4F8602BC4F83E
:103844006839C4F8683B75D00429C4F88029C4F8E1
:10385400802BC4F88839C4F8883B6BD00529C4F898
:10386400A029C4F8A02BC4F8A839C4F8A83B61D097
:103874000629C4F8C029C4F8C02BC4F8C839C4F850
:10388400C83B57D00729C4F8E029C4F8E02BC4F892
:10389400E839C4F8E83B4DD00829C4F8002AC4F834
:1038A400002CC4F8083AC4F8083C43D00929C4F8E9
:1038B400202AC4F8202CC4F8283AC4F8283C39D06B
:1038C4000A29C4F8402AC4F8402CC4F8483AC4F879
:1038D400483C2FD00B29C4F8602AC4F8602CC4F8E3
:1038E400683AC4F8683C25D00C29C4F8802AC4F886
:1038F400802CC4F8883AC4F8883C1BD00D29C4F83D
:10390400A02AC4F8A02CC4F8A83AC4F8A83C11D042
:103914000E29C4F8C02AC4F8C02CC4F8C83AC4F8A4
:10392400C83C07D0C4F8E02AC4F8E02CC4F8E83A4C
:10393400C4F8E83C0368F3650368726D636210239E
:103944001361156915F01005FBD1122001F042FB3B
:10395400D4F80038114A124923F4FE63C4F800383D
:10396400A36943F4402343F01003A3610923C4F87B
:103974001038C4F814384FF0C043F160C4F8103B59
:10398400C4F8002BC4F81059C4F80029F36D03F1EE
:10399400100243F48013F265A36270BD40800010EE
:1039A400FC680008426D90F84E10D2F8003823F4F9
:1039B400FE6343EA0113C2F8003870472DE9F84367
:1039C4000FFA81F800EB88070D46FB681A6802F0CD
:1039D4000302022A00F09780032A00F091804B4CE6
:1039E4004B49012A0CBFA1468946446D9E69690171
:1039F40062184FF0000CC2F810CB05F110024FF022
:103A0400010C0CFA02F2002E4BD0B3F812C005F1EF
:103A1400580676014CEA090C44F806C0D4F81C6830
:103A24003243C4F81C286618D3F814C00022A90134
:103A3400C6F8102941F020016A1EBCF1000F3FD0E6
:103A4400B3F81CC01E8ABCF1010F4FEA960302F1C1
:103A54004002C66D88BF0CFB03F304EB820203EB48
:103A6400060C46EA0343C0F85CC053602161236935
:103A74009A06FCD4122001F0ADFAFB681A8A05F10B
:103A8400480342EA85525B0142EA0902E2500121FD
:103A9400D4F81C3801FA05F51D43C4F81C58BDE8D8
:103AA400F88304EB481CDCF8006B26F40046CCF8E1
:103AB400006BD4F81C6826EA0202C4F81C28B2E79A
:103AC40005F13F0304EB8303124A5A602161236921
:103AD4009B06FCD404EB4818122001F07BFAD8F8BA
:103AE400003923F40043C8F80039D4F81C38012104
:103AF40001FA05F523EA0505C4F81C58BDE8F88366
:103B0400DFF8149071E7DFF814906EE7008004107A
:103B1400008000100004000200800C1000800810D7
:103B2400D0E9153110B40C68C465886800224FF0E0
:103B3400FF31C3F80029C3F81029C3F80819C3F8E2
:103B4400002BC3F8102BC3F8081B002800F0D58005
:103B54000128C3F82029C3F83029C3F82819C3F869
:103B6400202BC3F8302BC3F8281B40F2C680022850
:103B7400C3F84029C3F85029C3F84819C3F8402BA7
:103B8400C3F8502BC3F8481B00F0B7800328C3F8D0
:103B94006029C3F87029C3F86819C3F8602BC3F807
:103BA400702BC3F8681B00F0A8800428C3F8802990
:103BB400C3F89029C3F88819C3F8802BC3F8902B55
:103BC400C3F8881B00F099800528C3F8A029C3F81E
:103BD400B029C3F8A819C3F8A02BC3F8B02BC3F8B5
:103BE400A81B00F08A800628C3F8C029C3F8D0298E
:103BF400C3F8C819C3F8C02BC3F8D02BC3F8C81B2B
:103C04007BD00728C3F8E029C3F8F029C3F8E819E2
:103C1400C3F8E02BC3F8F02BC3F8E81B6DD00828D9
:103C2400C3F8002AC3F8102AC3F8081AC3F8002CF2
:103C3400C3F8102CC3F8081C5FD00928C3F8202A45
:103C4400C3F8302AC3F8281AC3F8202CC3F8302C40
:103C5400C3F8281C51D00A28C3F8402AC3F8502AB4
:103C6400C3F8481AC3F8402CC3F8502CC3F8481CB6
:103C740043D00B28C3F8602AC3F8702AC3F8681A23
:103C8400C3F8602CC3F8702CC3F8681C35D00C281A
:103C9400C3F8802AC3F8902AC3F8881AC3F8802C82
:103CA400C3F8902CC3F8881C27D00D28C3F8A02A89
:103CB400C3F8B02AC3F8A81AC3F8A02CC3F8B02CD0
:103CC400C3F8A81C19D00E28C3F8C02AC3F8D02AF8
:103CD400C3F8C81AC3F8C02CC3F8D02CC3F8C81C46
:103CE4000BD0C3F8E02AC3F8F02AC3F8E81AC3F8E3
:103CF400E02CC3F8F02CC3F8E81C4FF00112C3F811
:103D04001C285DF8044B70475831436D49015B58DA
:103D140013F4004004D013F4001F14BF0120022048
:103D2400704700BF4831436D49015B5813F40040AC
:103D340004D013F4001F14BF01200220704700BFF9
:103D440000EB8101CB681B6A19685B6853601160E2
:103D5400704700BF00EB810330B4DD68AB691C68B9
:103D6400DC6019B9402C84BF40241C606B8A406D10
:103D74002D685A1E2244B2FBF3F202FB03F3033311
:103D840023F0030343EAC24300EB411405F00302AA
:103D940043F0C043012AC4F8103B0AD009B200EB37
:103DA400411130BCD1F8003B43F00443C1F8003B5F
:103DB400704709B2D0F8083800EB411213F4807F41
:103DC400D2F8003B14BF43F0805343F00053C2F8D1
:103DD400003BE4E700EB8103426DD868F0B444692A
:103DE4002368E360EBB902EB41134FF40024C3F8FA
:103DF4001049036803F00303012B25D008B202EB3A
:103E040040100123D0F8004944F00444C0F80049AC
:103E1400D2F8340803FA01F10143C2F83418F0BCB3
:103E2400704711B343F00056078A02EB41157C1E1C
:103E34002344B3FBF7F346EAC343C5F810390368D8
:103E440003F00303012BD9D108B2D2F8083802EBEE
:103E5400401413F4807FD4F8003914BF43F0805326
:103E640043F00053C4F80039C9E7402BDAD94023A2
:103E7400014E2360D8E700BF40000020436D03EBF0
:103E84004111D1F8003B43F40013C1F8003B7047E3
:103E9400436D03EB4111D1F8003943F40013C1F829
:103EA40000397047436D03EB4111D1F8003B23F413
:103EB4000013C1F8003B7047436D03EB4111D1F887
:103EC400003923F40013C1F80039704711F00C0FC6
:103ED40070B50D46044649D161680B787BB105F095
:103EE4002006ED063CD44EB163685B6833B104220E
:103EF4002270204698472378042B3BD070BD656917
:103F04002A68136823F01F0313601368D807FCD4CE
:103F14006A7A20696D683D23934002682B601368B8
:103F240023F01F0313601368DB07FCD4457A4A6847
:103F340041683D23AB400B60FAB104232370204653
:103F440090472378042B18D0202383F31188002171
:103F540004F1080001F0C2FA002383F3118870BD54
:103F64004B68002BCAD020469847BCE7044800F0B1
:103F7400EBFFB1E70323237070BD02232370E3E753
:103F84002C69000811F00C0F38B5054618D1104CF7
:103F9400A54200D038BD63685B68ABB104222270CF
:103FA400204698472378042B0ED0202383F31188CE
:103FB4000021084801F092FA002383F3118838BDE8
:103FC400054800F0C1FFE2E702232370EDE700BFDC
:103FD400FC0A0020040B00202C690008F8B5134FDC
:103FE400134E144C3846FDF725F9134B134AFB6066
:103FF4000025134BBA613046FB61C7E90455FDF750
:1040040019F9104A104B1149F1602046C6E90623FC
:10401400C6E90455FDF70EF90D4A0E4B0E49E16051
:10402400C4E90455C4E90623F8BD00BFFC0A002016
:104034001C0B00203C0B0020003001401600010640
:1040440056000106160001084600010A003401402A
:10405400160001044600010E00500140F8B5037833
:10406400012B044632D0C368454D6668A269B08905
:10407400E1690705377822F4F04221F4F04144BFA6
:1040840042F4205241F42051DFB142F4847241F4ED
:104094008471F6891F68E16140F4417046F00701BC
:1040A40027F04007AC42A2611F601860596003D03A
:1040B4005A6842F001025A601A6842F040021A60DB
:1040C400F8BD22F4847221F48471E2E72C4DA842F5
:1040D40041D02C4B984225D02B4B984209D0D4E99F
:1040E4000332116803F10C028A60616909688A600D
:1040F400BBE72346254A0A210B20FEF719FB23467A
:104104002061234A0A210E20FEF712FB214B606135
:104114005A6C42F480125A645A6E42F480125A66FF
:104124005B6EDCE70346194A0A210820FEF700FB10
:1041340023462061164A0A210C20FEF7F9FA154B92
:1041440060615A6C42F400525A645A6E42F400524E
:104154005A665B6EC3E703460D4A0A210D20FEF73B
:10416400E7FA0C4AE368516C606141F48051516490
:10417400516E41F480515166526E03F10C02B4E762
:10418400FC0A00201C0B00203C0B0020D13E000840
:10419400893F0008003802404FF080431A699207B3
:1041A40001D401F0FBBB10B500241C61202383F370
:1041B400118800F0CFFE84F31188BDE8104001F0AF
:1041C400EDBB00BF124B13481A6C42F0010270B4ED
:1041D4001A641A6E42F001021A661B6E81684FF06F
:1041E40080430022012441F0010142F2CF064FF046
:1041F400FF3581609E620821DD621C209A615A634A
:10420400DA605A605C611C6070BCFDF741BB00BFA2
:1042140000380240002004E0F8B5264DEB686968D8
:104224001C69DA68087D1440E2B2D2431A6104F0D2
:10423400020688B9620730D52B78042B29D09EB9A1
:10424400E30705D56B681B481B69984703232B704C
:10425400BDE8F84001F0A2BB04F004075EB12B787E
:10426400042B04D0002FEBD004232B70E8E78B68D9
:10427400E3B128469847002FE2D02B78042BF3D1E2
:104284006968CB68002BEFD00A48984704232B7049
:10429400D6E78B683BB128469847002ED0D02B78C0
:1042A400042BE1D1ECE7002ECAD0EAE7002FC7D0F7
:1042B400E7E700BF5C0B0020F8B5264DEB686968A2
:1042C4001C69DA68087D1440E2B2D2431A6104F032
:1042D400020688B9620730D52B78042B29D09EB901
:1042E400E30705D56B681B481B69984703232B70AC
:1042F400BDE8F84001F052BB04F004075EB12B782E
:10430400042B04D0002FEBD004232B70E8E78B6838
:10431400E3B128469847002FE2D02B78042BF3D141
:104324006968CB68002BEFD00A48984704232B70A8
:10433400D6E78B683BB128469847002ED0D02B781F
:10434400042BE1D1ECE7002ECAD0EAE7002FC7D056
:10435400E7E700BF740B002038B5064D064C28462D
:10436400FCF708FD054BEB602046FCF703FD044B0E
:10437400E36038BD5C0B0020740B00200008004093
:10438400000C004038B5174DAB691C69DA6814405D
:10439400E2B2D2431A61A30704D56B681B690BB15F
:1043A40028469847600704D56B689B690BB10D4894
:1043B4009847210704D56B681B6A0BB109489847D5
:1043C400E20604D56B689B6A0BB106489847E3077D
:1043D40004D56B689B680BB102489847BDE8384028
:1043E40001F0DCBA8C0B002038B5174DAB691C69A1
:1043F400DA681440E2B2D2431A61A30704D56B68A9
:104404001B690BB128469847600704D56B689B6904
:104414000BB10D489847210704D56B681B6A0BB193
:1044240009489847E20604D56B689B6A0BB10648B5
:104434009847E30704D56B689B680BB1024898471B
:10444400BDE8384001F0AABA8C0B002038B5174DEE
:10445400AB691C69DA681440E2B2D2431A61A3075B
:1044640004D56B681B690BB128469847600704D5CF
:104474006B689B690BB10D489847210704D56B689D
:104484001B6A0BB109489847E20604D56B689B6A1E
:104494000BB106489847E30704D56B689B680BB1DA
:1044A40002489847BDE8384001F078BAC40B0020B0
:1044B40038B5174DAB691C69DA681440E2B2D243CF
:1044C4001A61A30704D56B681B690BB1284698478A
:1044D400600704D56B689B690BB10D4898472107A9
:1044E40004D56B681B6A0BB109489847E20604D5EA
:1044F4006B689B6A0BB106489847E30704D56B6861
:104504009B680BB102489847BDE8384001F046BAB1
:10451400A80B0020F8B50C4E0C4D0D4C3046FCF7A2
:1045240031FC04270B4BB36128463774FCF72AFC93
:10453400094BAB6120462F74FCF724FC0222074B85
:104544002274A361F8BD00BF8C0B0020C40B0020B3
:10455400A80B0020000001400004004000180040A7
:10456400024AD36843F0C003D36070470078004028
:104574002DE9F04F574E756FD5F80C902B68D80580
:1045840083B09CB273D4202383F3118814F02F0FCB
:104594000BD0DFF84881230730D1A0066B6820D404
:1045A4002C68A4B214F02F0FF5D1002383F31188E3
:1045B40019F0800F01D0220668D419F0400F0BD0F7
:1045C400630609D5202383F31188D6E911239A427F
:1045D40069D0002383F3118803B0BDE8F04F01F0E4
:1045E400DDB996F878103B481940FCF71FFC2C689D
:1045F400A4B214F02F0FD8D02307CED004F00803B0
:10460400002B14BFA0212021019115BF4FF4C073CA
:104614004FF480734FF4E0774FF4A07715BFC022B6
:1046240040224FF4D07B4FF4907B15BF4FF4F07AC7
:104634004FF4B07A4FF0E00E4FF0600E14BF8021BB
:10464400002114F0010F04F0020C404603D001993C
:104654005B4657467246BCF1000F1CBF3B461146F1
:1046640014F0040F18BF194601F06EF895E72023E3
:1046740083F311884FF40071301D01F065F86FF475
:1046840080732B60002383F311887CE7202383F35A
:1046940011881148FCF7BCFA002811DB686000237C
:1046A40083F3118889E7B36B002B92D010210B4858
:1046B40001F04AF84FF6BF7309EA0303EB6088E799
:1046C4000821064801F040F84FF67F7309EA030316
:1046D400EB60E4E7E00B0020100C0020E40B00206A
:1046E40010B5044C044A20460021FCF77FFB034B21
:1046F400636710BDE00B00206545000800780040AA
:1047040011F00C0F38B5044629D1216A0A681368E0
:1047140023F01F0313601368DB07FCD463684D7A2E
:1047240048681A683D23AB400221036061709AB166
:10473400204690476378022B0ED0237A03B938BD04
:10474400202383F31188002104F1100000F0C6FE39
:10475400002383F3118838BD00236370EDE702481A
:1047640000F0F2FBD1E700BF2C69000811F00C0F38
:104774002DE9F04104462DD1A378616833B9CB68A3
:1047840033B3A18C2046BDE8F0411847E0690268C4
:10479400136823F01F0313601368DB07FCD4477A04
:1047A40046688D683D23BB4002203360A070C5B1CC
:1047B4002046A847A378022B10D0202383F3118826
:1047C400002104F10C0000F089FE002383F311881A
:1047D400BDE8F0810D4800F0B7FBCDE7E3696168FF
:1047E4001A68CB68A169002B14BF4FF488734FF487
:1047F40080730B430120002504F12401A570D160CE
:1048040050601360136803431360D6E72C690008F3
:104814002DE9F04F524E7469E7682568636840F2E9
:104824001F131D4289B076D07368D3F810806FF4DB
:1048340080732360B8F1000F62D0ABB203F00802BA
:10484400002A14BF54224422009214BF742264220A
:10485400079214BF34222422039214BF5C224C22F8
:10486400019214BF7C226C22029214BF3C222C229F
:10487400069214BF1C220C22049214BF1422042298
:10488400059215BF502140214FF0700C4FF0600C81
:1048940015BF302020204FF0580B4FF0480B15BFA8
:1048A4004FF0780A4FF0680A4FF038094FF02809A2
:1048B40015BF4FF0180E4FF0080E1022002213F00F
:1048C400010F09D0DDE901BADDE904E20099DDF860
:1048D4001CC00398DDF8189013F0020F03D059465A
:1048E400D4464846724603F0040EBEF1000F1CBFC6
:1048F4000246614613F4807F08BF11461848C0473A
:10490400202383F311886FF00101164800F0E6FDBF
:10491400002383F311886A060ED57B060CD57368D1
:104924005B6827F040076FF040022260E7600BB13C
:104934000B489847347A24B109B0BDE8F04F01F030
:104944002DB8202383F311880748214600F0C6FDC3
:1049540084F3118809B0BDE8F04F01F01FB800BF1F
:104964005C0C0020680C00206C0C00202DE9F04F3A
:10497400524E7469E7682568636840F21F131D424C
:1049840089B076D07368D3F810806FF48073236095
:10499400B8F1000F62D0ABB203F00802002A14BFD2
:1049A40054224422009214BF74226422079214BF3A
:1049B40034222422039214BF5C224C22019214BF9D
:1049C4007C226C22029214BF3C222C22069214BF39
:1049D4001C220C22049214BF14220422059215BF37
:1049E400502140214FF0700C4FF0600C15BF302067
:1049F40020204FF0580B4FF0480B15BF4FF0780AAA
:104A04004FF0680A4FF038094FF0280915BF4FF0EE
:104A1400180E4FF0080E1022002213F0010F09D0D7
:104A2400DDE901BADDE904E20099DDF81CC0039870
:104A3400DDF8189013F0020F03D05946D4464846C7
:104A4400724603F0040EBEF1000F1CBF024661461D
:104A540013F4807F08BF11461848C047202383F30E
:104A640011886FF00101164800F038FD002383F32C
:104A740011886A060ED57B060CD573685B6827F02F
:104A840040076FF040022260E7600BB10B48984783
:104A9400347A24B109B0BDE8F04F00F07FBF202381
:104AA40083F311880748214600F018FD84F3118828
:104AB40009B0BDE8F04F00F071BF00BF840C0020C6
:104AC400900C0020940C00202DE9F04F524E746994
:104AD400E7682568636840F21F131D4289B076D0E9
:104AE4007368D3F810806FF480732360B8F1000FFB
:104AF40062D0ABB203F00802002A14BF542244224D
:104B0400009214BF74226422079214BF3422242218
:104B1400039214BF5C224C22019214BF7C226C22AB
:104B2400029214BF3C222C22069214BF1C220C2297
:104B3400049214BF14220422059215BF502140216F
:104B44004FF0700C4FF0600C15BF302020204FF058
:104B5400580B4FF0480B15BF4FF0780A4FF0680A16
:104B64004FF038094FF0280915BF4FF0180E4FF0D9
:104B7400080E1022002213F0010F09D0DDE901BA5A
:104B8400DDE904E20099DDF81CC00398DDF8189013
:104B940013F0020F03D05946D4464846724603F038
:104BA400040EBEF1000F1CBF0246614613F4807F61
:104BB40008BF11461848C047202383F311886FF0BB
:104BC4000101164800F08AFC002383F311886A0669
:104BD4000ED57B060CD573685B6827F040076FF031
:104BE40040022260E7600BB10B489847347A24B145
:104BF40009B0BDE8F04F00F0D1BE202383F3118843
:104C04000748214600F06AFC84F3118809B0BDE826
:104C1400F04F00F0C3BE00BFAC0C0020B80C002065
:104C2400BC0C00202DE9F0410F4E104F104D3046C2
:104C3400FCF716FB00240F4B73614FF0060838464F
:104C4400C6E906843462FCF70BFB0B4B7B612846F8
:104C5400FC613C62FCF704FB084B2C62C5E906844A
:104C64006B61BDE8F08100BF5C0C0020840C002067
:104C7400AC0C00200010014000140140007C0040F6
:104C8400F8B50378012B044671D0D0E907C746680C
:104C9400DCF80020358B3868616913684FF0000E2A
:104CA40023F01F0384F802E084F801E01360136822
:104CB400DB07FCD49CF809E0DCF804C03D2303FACC
:104CC4000EF3CCF80030036823F01F03036003687D
:104CD40013F00103FBD197F809E0D7F804C0664F3D
:104CE4003D2000FA0EF0B942CCF80000CB600B6115
:104CF4004B612FD06148736981422CD06048B0FB6E
:104D0400F3F328042CD4F068778BD4F818C0B68B4E
:104D14008B6000284FF000000B684B68086045F476
:104D2400045314BF4FF488704FF4807043F00C03A5
:104D340046F0C10547F040070126243440EA0C0040
:104D44000F614D61CB60D4605660106013683343CB
:104D54001360F8BD73694B48B0FBF3F32804D2D554
:104D640023F0070003F0070343EA4003CBE7464B75
:104D7400984260D0454B98423CD0454B984218D05D
:104D84006668358B05F4A053B3F5805F03D1A3693E
:104D940043F42053A361D4E907C76169DCF8002018
:104DA40038680B1D4FF0000E93608360A4F824E074
:104DB40073E70346374A0C210620FDF7B9FC234666
:104DC400E061354A0C210020FDF7B2FC334B206230
:104DD4001A6C42F000421A641A6E42F000421A66DB
:104DE4000C2153201B6EFCF753FDA36943F0206391
:104DF400A361C5E70346274A0C210920FDF798FC67
:104E04002346E061244A0C210F20FDF791FC234B3B
:104E140020625A6C42F020025A645A6E42F0200218
:104E24005A660C2147205B6EFCF732FDA36943F000
:104E34002063A361A4E70346164A0C210A20FDF768
:104E440077FC2346E061144A0C210F20FDF770FC27
:104E5400124B20625A6C42F010025A645A6E42F0AD
:104E640010025A660C2125205B6EFCF711FDA36924
:104E740043F00063A36183E7001001400014014084
:104E840080DE800200BD01055C0C0020840C002043
:104E9400AC0C0020714700080547000800380240A8
:104EA400FEE700BFF8B5204C237803B1F8BD03F04A
:104EB400FF0500F05BF900F097F800F077FB00F0D5
:104EC4008FFC00F0D5FC00F02DFD80221749184816
:104ED40000F036FA0126174B80F82060D968164A8C
:104EE400C5614FF6FF07394007F160470A43A7F64B
:104EF4000F37DA60FA681149DFF848C042F080726F
:104F0400FA600A68CCF8180032430A6010202022A4
:104F1400D87783F8222085F3118862B6084800F018
:104F24002DFA2670F8BD00BF380E00206069000815
:104F34006C0E002000ED00E00003FA05001000E014
:104F4400386900083C0E002072B6014BD862FEE7B7
:104F54003C0E00202DE9F84F1D4DAA464FF0804825
:104F64005AF81C4FA3682027D8F82400AA6AA0EB9B
:104F7400020999451CD300260AE086F311882069AA
:104F8400D84787F31188EC69A3689945ECD3AA6ADA
:104F94002168D4F80CB01A445145AA62A9EB03095C
:104FA400C1F804A0E961E660E7D1FBF71FFBE4E781
:104FB40054450BD0A3EB0903A862022B2CBFC018E5
:104FC4000230A360BDE8F84FFBF716BBBDE8F88FCD
:104FD4003C0E0020034A516853685B1A9842FBD880
:104FE400704700BF001000E0054B4FF0FF30002178
:104FF40003F11C02C3E90901C3E90722704700BF9A
:105004003C0E0020F8B51F4FBC4602295CF81C5F1B
:1050140003614FF0804338BF022165450646C260F4
:105024005C6A1ED0B86AAB68241A641815D29C4214
:1050340022D3A34204D22D68E41AAB68A342FAD364
:105044006B68C6E900531E606E60B460AB684FF0D5
:10505400FF321C1BAC607A62F8BD2D68E41AAB68A1
:10506400E7E7C7E90700BC626018C6E90055B1600C
:10507400BDE8F840FBF7B2BA2044FBF7BDFAAB68D1
:10508400D7E700BF3C0E00201B4BDA69824210B404
:1050940010D0D0E900210A6002681C3300249A422F
:1050A4005160C46003D0816893680B4493605DF8D9
:1050B400044B70471846116840F81C1F00248142B5
:1050C4004860D46013D094688A68986A14444FF096
:1050D40080428C60526A121A9442E8D9A11A0129BA
:1050E40098BF941C20445DF8044BFBF785BA5DF827
:1050F400044BFBF77BBA00BF3C0E0020202383F354
:10510400118890F82030072B0ED8DFE803F0290D22
:105114000D2508040D08426A936801339360D0E9B1
:1051240000231A600268536010B400224FF0FF3469
:1051340081680D4B446280F820201B689A688A427B
:10514400FBD25A680021C0E900321060586081F334
:1051540011885DF8044B7047436A00221A60E3E744
:10516400002383F3118870473C0E0020034B002278
:10517400C3E90033C3E904339A6070473C0E00204E
:1051840001460022074B806881F820201B689A683A
:105194008242FBD25A680846C1E900321160596064
:1051A400704700BF3C0E0020084B99691A6810B480
:1051B40081F82000106818600124436082F82040C0
:1051C40010465DF8044B9A61FBF79EB83C0E002034
:1051D40030B5194C4A1C87B00546A3691AD001A8FA
:1051E400164AFFF70FFFA169236881F820501A6857
:1051F400226001255460184683F82050A361FBF710
:1052040083F8049B13B101A8FFF73EFFA369586A12
:1052140007B030BD226883F82000106820600125A3
:1052240044601946104682F82050A261FBF76CF8DE
:10523400A369586A07B030BD3C0E00200151000834
:10524400164B70B49E6985680446B06861628542F5
:105254004FF000020CD884F820201B689A6895420D
:10526400FBD95A68C4E9003214605C6070BC7047B2
:1052740086F820201A46126891688842FBD9516842
:105284007160012032600E60566084F8200031465F
:1052940020469C6170BCFBF737B800BF3C0E002071
:1052A400104B30B418689C698268A1688A4201D89E
:1052B40030BC704702681A6053600125002280F8F0
:1052C4002050986184F820201B689A689142FBD38F
:1052D4005A682146C4E9003214605C6030BCFBF7B4
:1052E40013B800BF3C0E0020044B1A689B699068F9
:1052F4009B68984294BF0020012070473C0E002018
:105304000E4B1868026810B401219C691A6053603E
:1053140080F820100022A16884F8202098611B687E
:105324009A689142FBD35A682146C4E9003214605A
:105334005C605DF8044BFAF7E7BF00BF3C0E002049
:1053440070B40D4CC26365698260022601228161DA
:10535400068480F8222000F1280600F12C020021A6
:1053640045610461C0E90D1128616061C0E90A6208
:10537400026370BC704700BF3C0E002070B5202350
:1053840083F311888368446806681B4AD0E9045192
:10539400C06843F82C4C022403F8284C012403F879
:1053A400264C002403F8274C43E91B51516943F868
:1053B400400CA3F1AC0543F80C0C43F83C5C0F48DB
:1053C40043F84C0CA3F1480543E90E2143F8306C33
:1053D400A3F1200043E905440D61A3F11C015561CB
:1053E40043F8200C43E9071128462146FFF728FF1C
:1053F40084F31188284670BD3C0E00202503000864
:10540400F8B5069D202484F3118848394418164EB3
:10541400E061716944F8243C44F8205CA4F1640020
:1054240002250123A260E060E263258484F822302F
:1054340004F1280204F12C0300250C4F0C4844F815
:10544400047CC4E90461A061C4E90D5520460C61E3
:10545400C4E90A23236329467461FFF7F1FE85F347
:1054640011882046F8BD00BF3C0E0020250300082B
:105474005869000838B52022034682F31188104A7F
:105484009469A06A636204F12805A84206D00368FF
:10549400A362FFF775FEA06AA842F8D194F82230FF
:1054A40043B994F821309B0704D1D4E904231A6149
:1054B400226953610F20BDE83840FFF775BE00BF75
:1054C4003C0E002008B50146202383F311880820F0
:1054D400FFF77EFE002383F3118808BD03682BB118
:1054E4000022026018465962FFF74ABE704700BFA7
:1054F40069B1084B10B4024644689B690420C3E9AF
:105504000024236053605DF8044BFFF761BE4FF045
:10551400FF3070473C0E0020026890420AD010B45D
:105524001468046003466360104651625DF8044BDE
:10553400FFF726BE704700BF38B5036898420BD00A
:1055440004460D461A682260184654605D62FFF7EF
:1055540017FE23689C42F5D138BD00BF014B5B6840
:1055640083607047001000E00E4B0F4A5B68C1680F
:10557400F0B48468566F42681B1BD0E904459B1B3A
:10558400E61845F100079342026888BF4360013181
:105594009342C0E90467C0E9023138BF0360F0BC3C
:1055A400704700BF001000E03C0E002010B50C4C0A
:1055B40086B000234FF0FF31002268466367CDE9CF
:1055C400013303930023CDE904230091FFF7C6FFC1
:1055D4006846FFF7C9FF029B636706B010BD00BFB2
:1055E4003C0E00200023C0E900008360704700BF28
:1055F400F8B5202383F31188394A83689569002B11
:1056040042D0A9689A689142044607D993F82020A9
:105614009960062A40D0072A17D052B3264623465B
:1056240003E09968AA6891422CD31B689C42F8D184
:1056340073680620C5E900631D6075606C62FFF73E
:10564400B3FD002383F31188F8BDD3E90002106091
:105654005E6A18684260324602E09068884235D338
:1056640012689642F9D17268C3E9006213607360EC
:10567400D4E7D3E900121160196818464A60FFF7AD
:105684007FFDCBE71E46D3E7AB6BC0E90253A863AB
:10569400002383F31188F8BDD3E9000210605E6A29
:1056A400186837464260324602E09068884214D354
:1056B40012689642F9D17A68A968C3E90072136046
:1056C4007B60B3689A689142A0D8A7E716467268CF
:1056D400C3E9006213607360A0E71746EBE700BFFD
:1056E4003C0E0020174B70B59D69202383F311886D
:1056F4000468C368AB6384421DD0E96B4BB11A687C
:10570400934203D09268914238BF1146DB68002B64
:10571400F5D103462268A66BA96020461A6053603F
:10572400C3E90246A363FFF72BFDFFF7B9FD00238E
:1057340083F3118870BD0023A360002383F31188D1
:1057440070BD00BF3C0E0020F8B50468A04221D013
:105754000D46074641B3002604E00B2A37D02468DF
:10576400A74217D0D4E903322B431542E360F6D0A5
:10577400D4E90101436B90F820200B430A2A4363C8
:10578400EBD1426A1342EAD04662FFF7F9FC24687F
:10579400A742E7D1F8BD426A134202D04562FFF73F
:1057A400EFFC2468A742F5D0D4E90103416B90F8DB
:1057B40020200B430A2A4363EDD00B2AF1D1426A1D
:1057C40032EA0303EAD02468A742EDD1E2E7426A51
:1057D40032EA0303C3D14662FFF7D2FCD7E700BF26
:1057E400024B0349034AC3E900127047B40E002078
:1057F400501900200000032070B40B4DD5E900645B
:1058040032440138013A43185018494208401940BB
:1058140001448C4204D38E4202D8296070BC704784
:10582400002070BC704700BFB40E0020F0B42023E9
:1058340083F311880D4DD5E900744E1E3A44831943
:10584400494290190B4008400344A34207D89F42A1
:1058540005D82B60002383F31188F0BC7047002027
:10586400002383F31188F0BC704700BFB40E0020FE
:10587400044B054A1A6003F10C000022C3E901221B
:10588400FFF7B0BEBC0E002031580008F8B550E94F
:1058940002530733DB0805F10C0740F8043C0646C5
:1058A400A0F1080404353846FFF7A2FE2B46AB42AC
:1058B4001A6801D09C4202D91AB1944201D313460A
:1058C400F5E756F8040C46F8082C1C60451C56F8FD
:1058D400081C04EBC50291420DD05A68013203EB57
:1058E400C205AC4204BF1218C3E900123846BDE831
:1058F400F840FFF7F7BED1E90010284446F8081C29
:1059040046F8040CE9E700BF10B400240460C0E9C1
:105914000112C3605DF8044B704700BF0022FFF71B
:105924006BBF00BF70B5134C134D2046FFF75AFEF2
:1059340004F110062B4604F11400042214212661FC
:10594400FFF7E2FF04F124062B4604221C2104F194
:10595400280504F12C00C4E90965FFF7D5FF04F11B
:105964003C0104F1400204F14403C4E90F126364EE
:1059740070BD00BFD80E002021590008064A5368A4
:1059840023F001035360EFF30983683383F3098839
:10599400002383F31188704730EF00E0202383F362
:1059A4001188124B5B6813F4006302D183F31188EE
:1059B400704710B5F1EE103AEFF309840C4B4FF039
:1059C4008072DB6844F8083C44F84C2CA4F168036A
:1059D40083F30988FFF788FC18B1064B44F8503C60
:1059E40010BD054B44F8503C10BD00BF00ED00E075
:1059F40030EF00E03503000838030008704700BFAB
:105A040010B5054C05492046FBF734FC206ABDE877
:105A14001040FCF7F3BE00BF5C0C0020786900085E
:105A2400022906D0032906D00129064818BF002000
:105A3400704705487047032A9ABF044800EBC20028
:105A440000207047446A0008F8690008CC6A00081E
:105A540008B5202383F311880348FBF73DFB00239B
:105A640083F3118808BD00BF200F002010B505295D
:105A74000DD8DFE801F0210C0D212103202383F34D
:105A840011881248FBF7C8FA002383F3118810BD6C
:105A94000446202383F311880D4A0121FBF718FCE7
:105AA40020460C4A0221FBF713FC0848FBF7C0FA16
:105AB400002383F3118810BD202383F31188034846
:105AC400FBF78CFA002383F3118810BD200F00200C
